{
  "_format": "hh-sol-artifact-1",
  "contractName": "NFTMarketplace",
  "sourceName": "contracts/NFTMarketplace.sol",
  "abi": [
    {
      "inputs": [],
      "stateMutability": "nonpayable",
      "type": "constructor"
    },
    {
      "anonymous": false,
      "inputs": [
        {
          "indexed": true,
          "internalType": "address",
          "name": "owner",
          "type": "address"
        },
        {
          "indexed": true,
          "internalType": "address",
          "name": "approved",
          "type": "address"
        },
        {
          "indexed": true,
          "internalType": "uint256",
          "name": "tokenId",
          "type": "uint256"
        }
      ],
      "name": "Approval",
      "type": "event"
    },
    {
      "anonymous": false,
      "inputs": [
        {
          "indexed": true,
          "internalType": "address",
          "name": "owner",
          "type": "address"
        },
        {
          "indexed": true,
          "internalType": "address",
          "name": "operator",
          "type": "address"
        },
        {
          "indexed": false,
          "internalType": "bool",
          "name": "approved",
          "type": "bool"
        }
      ],
      "name": "ApprovalForAll",
      "type": "event"
    },
    {
      "anonymous": false,
      "inputs": [
        {
          "indexed": true,
          "internalType": "uint256",
          "name": "tokenId",
          "type": "uint256"
        },
        {
          "indexed": false,
          "internalType": "address",
          "name": "seller",
          "type": "address"
        },
        {
          "indexed": false,
          "internalType": "address",
          "name": "owner",
          "type": "address"
        },
        {
          "indexed": false,
          "internalType": "uint256",
          "name": "price",
          "type": "uint256"
        },
        {
          "indexed": false,
          "internalType": "bool",
          "name": "sold",
          "type": "bool"
        }
      ],
      "name": "MarketItemCreated",
      "type": "event"
    },
    {
      "anonymous": false,
      "inputs": [
        {
          "indexed": true,
          "internalType": "address",
          "name": "from",
          "type": "address"
        },
        {
          "indexed": true,
          "internalType": "address",
          "name": "to",
          "type": "address"
        },
        {
          "indexed": true,
          "internalType": "uint256",
          "name": "tokenId",
          "type": "uint256"
        }
      ],
      "name": "Transfer",
      "type": "event"
    },
    {
      "inputs": [],
      "name": "_end",
      "outputs": [
        {
          "internalType": "uint256",
          "name": "",
          "type": "uint256"
        }
      ],
      "stateMutability": "view",
      "type": "function"
    },
    {
      "inputs": [],
      "name": "_start",
      "outputs": [
        {
          "internalType": "uint256",
          "name": "",
          "type": "uint256"
        }
      ],
      "stateMutability": "view",
      "type": "function"
    },
    {
      "inputs": [
        {
          "internalType": "address",
          "name": "to",
          "type": "address"
        },
        {
          "internalType": "uint256",
          "name": "tokenId",
          "type": "uint256"
        }
      ],
      "name": "approve",
      "outputs": [],
      "stateMutability": "nonpayable",
      "type": "function"
    },
    {
      "inputs": [
        {
          "internalType": "address",
          "name": "owner",
          "type": "address"
        }
      ],
      "name": "balanceOf",
      "outputs": [
        {
          "internalType": "uint256",
          "name": "",
          "type": "uint256"
        }
      ],
      "stateMutability": "view",
      "type": "function"
    },
    {
      "inputs": [
        {
          "internalType": "uint256",
          "name": "tokenId",
          "type": "uint256"
        }
      ],
      "name": "createMarketSale",
      "outputs": [],
      "stateMutability": "payable",
      "type": "function"
    },
    {
      "inputs": [
        {
          "internalType": "string",
          "name": "tokenURI",
          "type": "string"
        },
        {
          "internalType": "uint256",
          "name": "price",
          "type": "uint256"
        }
      ],
      "name": "createToken",
      "outputs": [
        {
          "internalType": "uint256",
          "name": "",
          "type": "uint256"
        }
      ],
      "stateMutability": "payable",
      "type": "function"
    },
    {
      "inputs": [
        {
          "internalType": "uint256",
          "name": "totalTime",
          "type": "uint256"
        }
      ],
      "name": "end",
      "outputs": [],
      "stateMutability": "nonpayable",
      "type": "function"
    },
    {
      "inputs": [],
      "name": "expiry",
      "outputs": [
        {
          "internalType": "uint256",
          "name": "",
          "type": "uint256"
        }
      ],
      "stateMutability": "view",
      "type": "function"
    },
    {
      "inputs": [],
      "name": "fetchItemsListed",
      "outputs": [
        {
          "components": [
            {
              "internalType": "uint256",
              "name": "tokenId",
              "type": "uint256"
            },
            {
              "internalType": "address payable",
              "name": "seller",
              "type": "address"
            },
            {
              "internalType": "address payable",
              "name": "owner",
              "type": "address"
            },
            {
              "internalType": "uint256",
              "name": "price",
              "type": "uint256"
            },
            {
              "internalType": "bool",
              "name": "sold",
              "type": "bool"
            }
          ],
          "internalType": "struct NFTMarketplace.MarketItem[]",
          "name": "",
          "type": "tuple[]"
        }
      ],
      "stateMutability": "view",
      "type": "function"
    },
    {
      "inputs": [],
      "name": "fetchMarketItems",
      "outputs": [
        {
          "components": [
            {
              "internalType": "uint256",
              "name": "tokenId",
              "type": "uint256"
            },
            {
              "internalType": "address payable",
              "name": "seller",
              "type": "address"
            },
            {
              "internalType": "address payable",
              "name": "owner",
              "type": "address"
            },
            {
              "internalType": "uint256",
              "name": "price",
              "type": "uint256"
            },
            {
              "internalType": "bool",
              "name": "sold",
              "type": "bool"
            }
          ],
          "internalType": "struct NFTMarketplace.MarketItem[]",
          "name": "",
          "type": "tuple[]"
        }
      ],
      "stateMutability": "view",
      "type": "function"
    },
    {
      "inputs": [],
      "name": "fetchMyNFTs",
      "outputs": [
        {
          "components": [
            {
              "internalType": "uint256",
              "name": "tokenId",
              "type": "uint256"
            },
            {
              "internalType": "address payable",
              "name": "seller",
              "type": "address"
            },
            {
              "internalType": "address payable",
              "name": "owner",
              "type": "address"
            },
            {
              "internalType": "uint256",
              "name": "price",
              "type": "uint256"
            },
            {
              "internalType": "bool",
              "name": "sold",
              "type": "bool"
            }
          ],
          "internalType": "struct NFTMarketplace.MarketItem[]",
          "name": "",
          "type": "tuple[]"
        }
      ],
      "stateMutability": "view",
      "type": "function"
    },
    {
      "inputs": [
        {
          "internalType": "uint256",
          "name": "tokenId",
          "type": "uint256"
        }
      ],
      "name": "getApproved",
      "outputs": [
        {
          "internalType": "address",
          "name": "",
          "type": "address"
        }
      ],
      "stateMutability": "view",
      "type": "function"
    },
    {
      "inputs": [],
      "name": "getListingPrice",
      "outputs": [
        {
          "internalType": "uint256",
          "name": "",
          "type": "uint256"
        }
      ],
      "stateMutability": "view",
      "type": "function"
    },
    {
      "inputs": [],
      "name": "getTimeLeft",
      "outputs": [
        {
          "internalType": "uint256",
          "name": "",
          "type": "uint256"
        }
      ],
      "stateMutability": "view",
      "type": "function"
    },
    {
      "inputs": [
        {
          "internalType": "address",
          "name": "owner",
          "type": "address"
        },
        {
          "internalType": "address",
          "name": "operator",
          "type": "address"
        }
      ],
      "name": "isApprovedForAll",
      "outputs": [
        {
          "internalType": "bool",
          "name": "",
          "type": "bool"
        }
      ],
      "stateMutability": "view",
      "type": "function"
    },
    {
      "inputs": [],
      "name": "name",
      "outputs": [
        {
          "internalType": "string",
          "name": "",
          "type": "string"
        }
      ],
      "stateMutability": "view",
      "type": "function"
    },
    {
      "inputs": [
        {
          "internalType": "uint256",
          "name": "tokenId",
          "type": "uint256"
        }
      ],
      "name": "ownerOf",
      "outputs": [
        {
          "internalType": "address",
          "name": "",
          "type": "address"
        }
      ],
      "stateMutability": "view",
      "type": "function"
    },
    {
      "inputs": [
        {
          "internalType": "uint256",
          "name": "tokenId",
          "type": "uint256"
        },
        {
          "internalType": "uint256",
          "name": "price",
          "type": "uint256"
        }
      ],
      "name": "resellToken",
      "outputs": [],
      "stateMutability": "payable",
      "type": "function"
    },
    {
      "inputs": [
        {
          "internalType": "address",
          "name": "from",
          "type": "address"
        },
        {
          "internalType": "address",
          "name": "to",
          "type": "address"
        },
        {
          "internalType": "uint256",
          "name": "tokenId",
          "type": "uint256"
        }
      ],
      "name": "safeTransferFrom",
      "outputs": [],
      "stateMutability": "nonpayable",
      "type": "function"
    },
    {
      "inputs": [
        {
          "internalType": "address",
          "name": "from",
          "type": "address"
        },
        {
          "internalType": "address",
          "name": "to",
          "type": "address"
        },
        {
          "internalType": "uint256",
          "name": "tokenId",
          "type": "uint256"
        },
        {
          "internalType": "bytes",
          "name": "data",
          "type": "bytes"
        }
      ],
      "name": "safeTransferFrom",
      "outputs": [],
      "stateMutability": "nonpayable",
      "type": "function"
    },
    {
      "inputs": [
        {
          "internalType": "address",
          "name": "operator",
          "type": "address"
        },
        {
          "internalType": "bool",
          "name": "approved",
          "type": "bool"
        }
      ],
      "name": "setApprovalForAll",
      "outputs": [],
      "stateMutability": "nonpayable",
      "type": "function"
    },
    {
      "inputs": [],
      "name": "start",
      "outputs": [],
      "stateMutability": "nonpayable",
      "type": "function"
    },
    {
      "inputs": [
        {
          "internalType": "bytes4",
          "name": "interfaceId",
          "type": "bytes4"
        }
      ],
      "name": "supportsInterface",
      "outputs": [
        {
          "internalType": "bool",
          "name": "",
          "type": "bool"
        }
      ],
      "stateMutability": "view",
      "type": "function"
    },
    {
      "inputs": [],
      "name": "symbol",
      "outputs": [
        {
          "internalType": "string",
          "name": "",
          "type": "string"
        }
      ],
      "stateMutability": "view",
      "type": "function"
    },
    {
      "inputs": [
        {
          "internalType": "uint256",
          "name": "tokenId",
          "type": "uint256"
        }
      ],
      "name": "tokenURI",
      "outputs": [
        {
          "internalType": "string",
          "name": "",
          "type": "string"
        }
      ],
      "stateMutability": "view",
      "type": "function"
    },
    {
      "inputs": [
        {
          "internalType": "address",
          "name": "from",
          "type": "address"
        },
        {
          "internalType": "address",
          "name": "to",
          "type": "address"
        },
        {
          "internalType": "uint256",
          "name": "tokenId",
          "type": "uint256"
        }
      ],
      "name": "transferFrom",
      "outputs": [],
      "stateMutability": "nonpayable",
      "type": "function"
    },
    {
      "inputs": [
        {
          "internalType": "uint256",
          "name": "_listingPrice",
          "type": "uint256"
        }
      ],
      "name": "updateListingPrice",
      "outputs": [],
      "stateMutability": "payable",
      "type": "function"
    }
  ],
  "bytecode": "0x60806040526658d15e176280006009553480156200001c57600080fd5b506040518060400160405280601081526020017f4d657461766572736520546f6b656e73000000000000000000000000000000008152506040518060400160405280600481526020017f4d455454000000000000000000000000000000000000000000000000000000008152508160009080519060200190620000a192919062000104565b508060019080519060200190620000ba92919062000104565b50505033600a60006101000a81548173ffffffffffffffffffffffffffffffffffffffff021916908373ffffffffffffffffffffffffffffffffffffffff16021790555062000219565b8280546200011290620001b4565b90600052602060002090601f01602090048101928262000136576000855562000182565b82601f106200015157805160ff191683800117855562000182565b8280016001018555821562000182579182015b828111156200018157825182559160200191906001019062000164565b5b50905062000191919062000195565b5090565b5b80821115620001b057600081600090555060010162000196565b5090565b60006002820490506001821680620001cd57607f821691505b60208210811415620001e457620001e3620001ea565b5b50919050565b7f4e487b7100000000000000000000000000000000000000000000000000000000600052602260045260246000fd5b6142a080620002296000396000f3fe60806040526004361061019c5760003560e01c80636352211e116100ec578063be9a65551161008a578063c87b56dd11610064578063c87b56dd1461058d578063e184c9be146105ca578063e219fc75146105f5578063e985e9c5146106115761019c565b8063be9a65551461052f578063be9af53614610546578063c7e284b8146105625761019c565b806395d89b41116100c657806395d89b4114610496578063a22cb465146104c1578063ae677aa3146104ea578063b88d4fde146105065761019c565b80636352211e146103ec57806370a082311461042957806372b3b620146104665761019c565b806312e85585116101595780633c20ee6e116101335780633c20ee6e1461034257806342842e0e1461036d57806345f8fa801461039657806353ef6781146103c15761019c565b806312e85585146102c3578063202e3740146102ee57806323b872dd146103195761019c565b806301ffc9a7146101a157806306fdde03146101de578063081812fc14610209578063095ea7b3146102465780630ad245281461026f5780630f08efe014610298575b600080fd5b3480156101ad57600080fd5b506101c860048036038101906101c39190612fe2565b61064e565b6040516101d59190613653565b60405180910390f35b3480156101ea57600080fd5b506101f3610730565b604051610200919061366e565b60405180910390f35b34801561021557600080fd5b50610230600480360381019061022b9190613088565b6107c2565b60405161023d9190613585565b60405180910390f35b34801561025257600080fd5b5061026d60048036038101906102689190612fa6565b610808565b005b34801561027b57600080fd5b5061029660048036038101906102919190613088565b610920565b005b3480156102a457600080fd5b506102ad610937565b6040516102ba9190613631565b60405180910390f35b3480156102cf57600080fd5b506102d8610bec565b6040516102e591906138f0565b60405180910390f35b3480156102fa57600080fd5b50610303610bf6565b6040516103109190613631565b60405180910390f35b34801561032557600080fd5b50610340600480360381019061033b9190612ea0565b610f30565b005b34801561034e57600080fd5b50610357610f90565b60405161036491906138f0565b60405180910390f35b34801561037957600080fd5b50610394600480360381019061038f9190612ea0565b610f96565b005b3480156103a257600080fd5b506103ab610fb6565b6040516103b89190613631565b60405180910390f35b3480156103cd57600080fd5b506103d66112f0565b6040516103e391906138f0565b60405180910390f35b3480156103f857600080fd5b50610413600480360381019061040e9190613088565b6112f6565b6040516104209190613585565b60405180910390f35b34801561043557600080fd5b50610450600480360381019061044b9190612e3b565b6113a8565b60405161045d91906138f0565b60405180910390f35b610480600480360381019061047b9190613034565b611460565b60405161048d91906138f0565b60405180910390f35b3480156104a257600080fd5b506104ab6114a2565b6040516104b8919061366e565b60405180910390f35b3480156104cd57600080fd5b506104e860048036038101906104e39190612f6a565b611534565b005b61050460048036038101906104ff9190613088565b61154a565b005b34801561051257600080fd5b5061052d60048036038101906105289190612eef565b6115e4565b005b34801561053b57600080fd5b50610544611646565b005b610560600480360381019061055b9190613088565b61164f565b005b34801561056e57600080fd5b5061057761189e565b60405161058491906138f0565b60405180910390f35b34801561059957600080fd5b506105b460048036038101906105af9190613088565b6118f8565b6040516105c1919061366e565b60405180910390f35b3480156105d657600080fd5b506105df611a0b565b6040516105ec91906138f0565b60405180910390f35b61060f600480360381019061060a91906130b1565b611a11565b005b34801561061d57600080fd5b5061063860048036038101906106339190612e64565b611c06565b6040516106459190613653565b60405180910390f35b60007f80ac58cd000000000000000000000000000000000000000000000000000000007bffffffffffffffffffffffffffffffffffffffffffffffffffffffff1916827bffffffffffffffffffffffffffffffffffffffffffffffffffffffff1916148061071957507f5b5e139f000000000000000000000000000000000000000000000000000000007bffffffffffffffffffffffffffffffffffffffffffffffffffffffff1916827bffffffffffffffffffffffffffffffffffffffffffffffffffffffff1916145b80610729575061072882611c9a565b5b9050919050565b60606000805461073f90613b91565b80601f016020809104026020016040519081016040528092919081815260200182805461076b90613b91565b80156107b85780601f1061078d576101008083540402835291602001916107b8565b820191906000526020600020905b81548152906001019060200180831161079b57829003601f168201915b5050505050905090565b60006107cd82611d04565b6004600083815260200190815260200160002060009054906101000a900473ffffffffffffffffffffffffffffffffffffffff169050919050565b6000610813826112f6565b90508073ffffffffffffffffffffffffffffffffffffffff168373ffffffffffffffffffffffffffffffffffffffff161415610884576040517f08c379a000000000000000000000000000000000000000000000000000000000815260040161087b90613850565b60405180910390fd5b8073ffffffffffffffffffffffffffffffffffffffff166108a3611d4f565b73ffffffffffffffffffffffffffffffffffffffff1614806108d257506108d1816108cc611d4f565b611c06565b5b610911576040517f08c379a0000000000000000000000000000000000000000000000000000000008152600401610908906137b0565b60405180910390fd5b61091b8383611d57565b505050565b600c548161092e9190613a0e565b600d8190555050565b606060006109456007611e10565b905060006109536008611e10565b61095d6007611e10565b6109679190613a95565b90506000808267ffffffffffffffff8111156109ac577f4e487b7100000000000000000000000000000000000000000000000000000000600052604160045260246000fd5b6040519080825280602002602001820160405280156109e557816020015b6109d2612c02565b8152602001906001900390816109ca5790505b50905060005b84811015610be1573073ffffffffffffffffffffffffffffffffffffffff16600e6000600184610a1b9190613a0e565b815260200190815260200160002060020160009054906101000a900473ffffffffffffffffffffffffffffffffffffffff1673ffffffffffffffffffffffffffffffffffffffff161415610bce576000600182610a789190613a0e565b90506000600e60008381526020019081526020016000209050806040518060a0016040529081600082015481526020016001820160009054906101000a900473ffffffffffffffffffffffffffffffffffffffff1673ffffffffffffffffffffffffffffffffffffffff1673ffffffffffffffffffffffffffffffffffffffff1681526020016002820160009054906101000a900473ffffffffffffffffffffffffffffffffffffffff1673ffffffffffffffffffffffffffffffffffffffff1673ffffffffffffffffffffffffffffffffffffffff168152602001600382015481526020016004820160009054906101000a900460ff161515151581525050848681518110610bb1577f4e487b7100000000000000000000000000000000000000000000000000000000600052603260045260246000fd5b6020026020010181905250600185610bc99190613a0e565b945050505b8080610bd990613bf4565b9150506109eb565b508094505050505090565b6000600954905090565b60606000610c046007611e10565b905060008060005b83811015610cad573373ffffffffffffffffffffffffffffffffffffffff16600e6000600184610c3c9190613a0e565b815260200190815260200160002060020160009054906101000a900473ffffffffffffffffffffffffffffffffffffffff1673ffffffffffffffffffffffffffffffffffffffff161415610c9a57600183610c979190613a0e565b92505b8080610ca590613bf4565b915050610c0c565b5060008267ffffffffffffffff811115610cf0577f4e487b7100000000000000000000000000000000000000000000000000000000600052604160045260246000fd5b604051908082528060200260200182016040528015610d2957816020015b610d16612c02565b815260200190600190039081610d0e5790505b50905060005b84811015610f25573373ffffffffffffffffffffffffffffffffffffffff16600e6000600184610d5f9190613a0e565b815260200190815260200160002060020160009054906101000a900473ffffffffffffffffffffffffffffffffffffffff1673ffffffffffffffffffffffffffffffffffffffff161415610f12576000600182610dbc9190613a0e565b90506000600e60008381526020019081526020016000209050806040518060a0016040529081600082015481526020016001820160009054906101000a900473ffffffffffffffffffffffffffffffffffffffff1673ffffffffffffffffffffffffffffffffffffffff1673ffffffffffffffffffffffffffffffffffffffff1681526020016002820160009054906101000a900473ffffffffffffffffffffffffffffffffffffffff1673ffffffffffffffffffffffffffffffffffffffff1673ffffffffffffffffffffffffffffffffffffffff168152602001600382015481526020016004820160009054906101000a900460ff161515151581525050848681518110610ef5577f4e487b7100000000000000000000000000000000000000000000000000000000600052603260045260246000fd5b6020026020010181905250600185610f0d9190613a0e565b945050505b8080610f1d90613bf4565b915050610d2f565b508094505050505090565b610f41610f3b611d4f565b82611e1e565b610f80576040517f08c379a0000000000000000000000000000000000000000000000000000000008152600401610f77906138b0565b60405180910390fd5b610f8b838383611eb3565b505050565b600d5481565b610fb1838383604051806020016040528060008152506115e4565b505050565b60606000610fc46007611e10565b905060008060005b8381101561106d573373ffffffffffffffffffffffffffffffffffffffff16600e6000600184610ffc9190613a0e565b815260200190815260200160002060010160009054906101000a900473ffffffffffffffffffffffffffffffffffffffff1673ffffffffffffffffffffffffffffffffffffffff16141561105a576001836110579190613a0e565b92505b808061106590613bf4565b915050610fcc565b5060008267ffffffffffffffff8111156110b0577f4e487b7100000000000000000000000000000000000000000000000000000000600052604160045260246000fd5b6040519080825280602002602001820160405280156110e957816020015b6110d6612c02565b8152602001906001900390816110ce5790505b50905060005b848110156112e5573373ffffffffffffffffffffffffffffffffffffffff16600e600060018461111f9190613a0e565b815260200190815260200160002060010160009054906101000a900473ffffffffffffffffffffffffffffffffffffffff1673ffffffffffffffffffffffffffffffffffffffff1614156112d257600060018261117c9190613a0e565b90506000600e60008381526020019081526020016000209050806040518060a0016040529081600082015481526020016001820160009054906101000a900473ffffffffffffffffffffffffffffffffffffffff1673ffffffffffffffffffffffffffffffffffffffff1673ffffffffffffffffffffffffffffffffffffffff1681526020016002820160009054906101000a900473ffffffffffffffffffffffffffffffffffffffff1673ffffffffffffffffffffffffffffffffffffffff1673ffffffffffffffffffffffffffffffffffffffff168152602001600382015481526020016004820160009054906101000a900460ff1615151515815250508486815181106112b5577f4e487b7100000000000000000000000000000000000000000000000000000000600052603260045260246000fd5b60200260200101819052506001856112cd9190613a0e565b945050505b80806112dd90613bf4565b9150506110ef565b508094505050505090565b600c5481565b6000806002600084815260200190815260200160002060009054906101000a900473ffffffffffffffffffffffffffffffffffffffff169050600073ffffffffffffffffffffffffffffffffffffffff168173ffffffffffffffffffffffffffffffffffffffff16141561139f576040517f08c379a000000000000000000000000000000000000000000000000000000000815260040161139690613830565b60405180910390fd5b80915050919050565b60008073ffffffffffffffffffffffffffffffffffffffff168273ffffffffffffffffffffffffffffffffffffffff161415611419576040517f08c379a000000000000000000000000000000000000000000000000000000000815260040161141090613750565b60405180910390fd5b600360008373ffffffffffffffffffffffffffffffffffffffff1673ffffffffffffffffffffffffffffffffffffffff168152602001908152602001600020549050919050565b600061146c600761211a565b60006114786007611e10565b90506114843382612130565b61148e818561230a565b611498818461237e565b8091505092915050565b6060600180546114b190613b91565b80601f01602080910402602001604051908101604052809291908181526020018280546114dd90613b91565b801561152a5780601f106114ff5761010080835404028352916020019161152a565b820191906000526020600020905b81548152906001019060200180831161150d57829003601f168201915b5050505050905090565b61154661153f611d4f565b8383612581565b5050565b3373ffffffffffffffffffffffffffffffffffffffff16600a60009054906101000a900473ffffffffffffffffffffffffffffffffffffffff1673ffffffffffffffffffffffffffffffffffffffff16146115da576040517f08c379a00000000000000000000000000000000000000000000000000000000081526004016115d190613890565b60405180910390fd5b8060098190555050565b6115f56115ef611d4f565b83611e1e565b611634576040517f08c379a000000000000000000000000000000000000000000000000000000000815260040161162b906138b0565b60405180910390fd5b611640848484846126ee565b50505050565b42600c81905550565b6000600e60008381526020019081526020016000206003015490506000600e600084815260200190815260200160002060010160009054906101000a900473ffffffffffffffffffffffffffffffffffffffff1690508134146116e7576040517f08c379a00000000000000000000000000000000000000000000000000000000081526004016116de90613790565b60405180910390fd5b33600e600085815260200190815260200160002060020160006101000a81548173ffffffffffffffffffffffffffffffffffffffff021916908373ffffffffffffffffffffffffffffffffffffffff1602179055506001600e600085815260200190815260200160002060040160006101000a81548160ff0219169083151502179055506000600e600085815260200190815260200160002060010160006101000a81548173ffffffffffffffffffffffffffffffffffffffff021916908373ffffffffffffffffffffffffffffffffffffffff1602179055506117cb600861211a565b6117d6303385611eb3565b600a60009054906101000a900473ffffffffffffffffffffffffffffffffffffffff1673ffffffffffffffffffffffffffffffffffffffff166108fc6009549081150290604051600060405180830381858888f19350505050158015611840573d6000803e3d6000fd5b508073ffffffffffffffffffffffffffffffffffffffff166108fc349081150290604051600060405180830381858888f19350505050158015611887573d6000803e3d6000fd5b50611890611646565b61189982610920565b505050565b6000600d544211156118e5576040517f08c379a00000000000000000000000000000000000000000000000000000000081526004016118dc90613810565b60405180910390fd5b42600d546118f39190613a95565b905090565b606061190382611d04565b600060066000848152602001908152602001600020805461192390613b91565b80601f016020809104026020016040519081016040528092919081815260200182805461194f90613b91565b801561199c5780601f106119715761010080835404028352916020019161199c565b820191906000526020600020905b81548152906001019060200180831161197f57829003601f168201915b5050505050905060006119ad61274a565b90506000815114156119c3578192505050611a06565b6000825111156119f85780826040516020016119e0929190613561565b60405160208183030381529060405292505050611a06565b611a0184612761565b925050505b919050565b600b5481565b3373ffffffffffffffffffffffffffffffffffffffff16600e600084815260200190815260200160002060020160009054906101000a900473ffffffffffffffffffffffffffffffffffffffff1673ffffffffffffffffffffffffffffffffffffffff1614611ab5576040517f08c379a0000000000000000000000000000000000000000000000000000000008152600401611aac906137f0565b60405180910390fd5b6009543414611af9576040517f08c379a0000000000000000000000000000000000000000000000000000000008152600401611af090613870565b60405180910390fd5b6000600e600084815260200190815260200160002060040160006101000a81548160ff02191690831515021790555080600e60008481526020019081526020016000206003018190555033600e600084815260200190815260200160002060010160006101000a81548173ffffffffffffffffffffffffffffffffffffffff021916908373ffffffffffffffffffffffffffffffffffffffff16021790555030600e600084815260200190815260200160002060020160006101000a81548173ffffffffffffffffffffffffffffffffffffffff021916908373ffffffffffffffffffffffffffffffffffffffff160217905550611bf760086127c9565b611c02333084611eb3565b5050565b6000600560008473ffffffffffffffffffffffffffffffffffffffff1673ffffffffffffffffffffffffffffffffffffffff16815260200190815260200160002060008373ffffffffffffffffffffffffffffffffffffffff1673ffffffffffffffffffffffffffffffffffffffff16815260200190815260200160002060009054906101000a900460ff16905092915050565b60007f01ffc9a7000000000000000000000000000000000000000000000000000000007bffffffffffffffffffffffffffffffffffffffffffffffffffffffff1916827bffffffffffffffffffffffffffffffffffffffffffffffffffffffff1916149050919050565b611d0d81612825565b611d4c576040517f08c379a0000000000000000000000000000000000000000000000000000000008152600401611d4390613830565b60405180910390fd5b50565b600033905090565b816004600083815260200190815260200160002060006101000a81548173ffffffffffffffffffffffffffffffffffffffff021916908373ffffffffffffffffffffffffffffffffffffffff160217905550808273ffffffffffffffffffffffffffffffffffffffff16611dca836112f6565b73ffffffffffffffffffffffffffffffffffffffff167f8c5be1e5ebec7d5bd14f71427d1e84f3dd0314c0f7b2291e5b200ac8c7c3b92560405160405180910390a45050565b600081600001549050919050565b600080611e2a836112f6565b90508073ffffffffffffffffffffffffffffffffffffffff168473ffffffffffffffffffffffffffffffffffffffff161480611e6c5750611e6b8185611c06565b5b80611eaa57508373ffffffffffffffffffffffffffffffffffffffff16611e92846107c2565b73ffffffffffffffffffffffffffffffffffffffff16145b91505092915050565b8273ffffffffffffffffffffffffffffffffffffffff16611ed3826112f6565b73ffffffffffffffffffffffffffffffffffffffff1614611f29576040517f08c379a0000000000000000000000000000000000000000000000000000000008152600401611f20906136d0565b60405180910390fd5b600073ffffffffffffffffffffffffffffffffffffffff168273ffffffffffffffffffffffffffffffffffffffff161415611f99576040517f08c379a0000000000000000000000000000000000000000000000000000000008152600401611f9090613710565b60405180910390fd5b611fa4838383612891565b611faf600082611d57565b6001600360008573ffffffffffffffffffffffffffffffffffffffff1673ffffffffffffffffffffffffffffffffffffffff1681526020019081526020016000206000828254611fff9190613a95565b925050819055506001600360008473ffffffffffffffffffffffffffffffffffffffff1673ffffffffffffffffffffffffffffffffffffffff16815260200190815260200160002060008282546120569190613a0e565b92505081905550816002600083815260200190815260200160002060006101000a81548173ffffffffffffffffffffffffffffffffffffffff021916908373ffffffffffffffffffffffffffffffffffffffff160217905550808273ffffffffffffffffffffffffffffffffffffffff168473ffffffffffffffffffffffffffffffffffffffff167fddf252ad1be2c89b69c2b068fc378daa952ba7f163c4a11628f55a4df523b3ef60405160405180910390a4612115838383612896565b505050565b6001816000016000828254019250508190555050565b600073ffffffffffffffffffffffffffffffffffffffff168273ffffffffffffffffffffffffffffffffffffffff1614156121a0576040517f08c379a0000000000000000000000000000000000000000000000000000000008152600401612197906137d0565b60405180910390fd5b6121a981612825565b156121e9576040517f08c379a00000000000000000000000000000000000000000000000000000000081526004016121e0906136f0565b60405180910390fd5b6121f560008383612891565b6001600360008473ffffffffffffffffffffffffffffffffffffffff1673ffffffffffffffffffffffffffffffffffffffff16815260200190815260200160002060008282546122459190613a0e565b92505081905550816002600083815260200190815260200160002060006101000a81548173ffffffffffffffffffffffffffffffffffffffff021916908373ffffffffffffffffffffffffffffffffffffffff160217905550808273ffffffffffffffffffffffffffffffffffffffff16600073ffffffffffffffffffffffffffffffffffffffff167fddf252ad1be2c89b69c2b068fc378daa952ba7f163c4a11628f55a4df523b3ef60405160405180910390a461230660008383612896565b5050565b61231382612825565b612352576040517f08c379a000000000000000000000000000000000000000000000000000000000815260040161234990613770565b60405180910390fd5b80600660008481526020019081526020016000209080519060200190612379929190612c5f565b505050565b600081116123c1576040517f08c379a00000000000000000000000000000000000000000000000000000000081526004016123b8906138d0565b60405180910390fd5b6009543414612405576040517f08c379a00000000000000000000000000000000000000000000000000000000081526004016123fc90613870565b60405180910390fd5b6040518060a001604052808381526020013373ffffffffffffffffffffffffffffffffffffffff1681526020013073ffffffffffffffffffffffffffffffffffffffff16815260200182815260200160001515815250600e60008481526020019081526020016000206000820151816000015560208201518160010160006101000a81548173ffffffffffffffffffffffffffffffffffffffff021916908373ffffffffffffffffffffffffffffffffffffffff16021790555060408201518160020160006101000a81548173ffffffffffffffffffffffffffffffffffffffff021916908373ffffffffffffffffffffffffffffffffffffffff1602179055506060820151816003015560808201518160040160006101000a81548160ff02191690831515021790555090505061253e333084611eb3565b817fb640004f1d14576d0c209e240cad0410e0d8c0c33a09375861fbadae2588a98d333084600060405161257594939291906135a0565b60405180910390a25050565b8173ffffffffffffffffffffffffffffffffffffffff168373ffffffffffffffffffffffffffffffffffffffff1614156125f0576040517f08c379a00000000000000000000000000000000000000000000000000000000081526004016125e790613730565b60405180910390fd5b80600560008573ffffffffffffffffffffffffffffffffffffffff1673ffffffffffffffffffffffffffffffffffffffff16815260200190815260200160002060008473ffffffffffffffffffffffffffffffffffffffff1673ffffffffffffffffffffffffffffffffffffffff16815260200190815260200160002060006101000a81548160ff0219169083151502179055508173ffffffffffffffffffffffffffffffffffffffff168373ffffffffffffffffffffffffffffffffffffffff167f17307eab39ab6107e8899845ad3d59bd9653f200f220920489ca2b5937696c31836040516126e19190613653565b60405180910390a3505050565b6126f9848484611eb3565b6127058484848461289b565b612744576040517f08c379a000000000000000000000000000000000000000000000000000000000815260040161273b906136b0565b60405180910390fd5b50505050565b606060405180602001604052806000815250905090565b606061276c82611d04565b600061277661274a565b9050600081511161279657604051806020016040528060008152506127c1565b806127a084612a32565b6040516020016127b1929190613561565b6040516020818303038152906040525b915050919050565b60008160000154905060008111612815576040517f08c379a000000000000000000000000000000000000000000000000000000000815260040161280c90613690565b60405180910390fd5b6001810382600001819055505050565b60008073ffffffffffffffffffffffffffffffffffffffff166002600084815260200190815260200160002060009054906101000a900473ffffffffffffffffffffffffffffffffffffffff1673ffffffffffffffffffffffffffffffffffffffff1614159050919050565b505050565b505050565b60006128bc8473ffffffffffffffffffffffffffffffffffffffff16612bdf565b15612a25578373ffffffffffffffffffffffffffffffffffffffff1663150b7a026128e5611d4f565b8786866040518563ffffffff1660e01b815260040161290794939291906135e5565b602060405180830381600087803b15801561292157600080fd5b505af192505050801561295257506040513d601f19601f8201168201806040525081019061294f919061300b565b60015b6129d5573d8060008114612982576040519150601f19603f3d011682016040523d82523d6000602084013e612987565b606091505b506000815114156129cd576040517f08c379a00000000000000000000000000000000000000000000000000000000081526004016129c4906136b0565b60405180910390fd5b805181602001fd5b63150b7a0260e01b7bffffffffffffffffffffffffffffffffffffffffffffffffffffffff1916817bffffffffffffffffffffffffffffffffffffffffffffffffffffffff191614915050612a2a565b600190505b949350505050565b60606000821415612a7a576040518060400160405280600181526020017f30000000000000000000000000000000000000000000000000000000000000008152509050612bda565b600082905060005b60008214612aac578080612a9590613bf4565b915050600a82612aa59190613a64565b9150612a82565b60008167ffffffffffffffff811115612aee577f4e487b7100000000000000000000000000000000000000000000000000000000600052604160045260246000fd5b6040519080825280601f01601f191660200182016040528015612b205781602001600182028036833780820191505090505b5090505b60008514612bd357600182612b399190613a95565b9150600a85612b489190613c3d565b6030612b549190613a0e565b60f81b818381518110612b90577f4e487b7100000000000000000000000000000000000000000000000000000000600052603260045260246000fd5b60200101907effffffffffffffffffffffffffffffffffffffffffffffffffffffffffffff1916908160001a905350600a85612bcc9190613a64565b9450612b24565b8093505050505b919050565b6000808273ffffffffffffffffffffffffffffffffffffffff163b119050919050565b6040518060a0016040528060008152602001600073ffffffffffffffffffffffffffffffffffffffff168152602001600073ffffffffffffffffffffffffffffffffffffffff168152602001600081526020016000151581525090565b828054612c6b90613b91565b90600052602060002090601f016020900481019282612c8d5760008555612cd4565b82601f10612ca657805160ff1916838001178555612cd4565b82800160010185558215612cd4579182015b82811115612cd3578251825591602001919060010190612cb8565b5b509050612ce19190612ce5565b5090565b5b80821115612cfe576000816000905550600101612ce6565b5090565b6000612d15612d1084613930565b61390b565b905082815260208101848484011115612d2d57600080fd5b612d38848285613b4f565b509392505050565b6000612d53612d4e84613961565b61390b565b905082815260208101848484011115612d6b57600080fd5b612d76848285613b4f565b509392505050565b600081359050612d8d8161420e565b92915050565b600081359050612da281614225565b92915050565b600081359050612db78161423c565b92915050565b600081519050612dcc8161423c565b92915050565b600082601f830112612de357600080fd5b8135612df3848260208601612d02565b91505092915050565b600082601f830112612e0d57600080fd5b8135612e1d848260208601612d40565b91505092915050565b600081359050612e3581614253565b92915050565b600060208284031215612e4d57600080fd5b6000612e5b84828501612d7e565b91505092915050565b60008060408385031215612e7757600080fd5b6000612e8585828601612d7e565b9250506020612e9685828601612d7e565b9150509250929050565b600080600060608486031215612eb557600080fd5b6000612ec386828701612d7e565b9350506020612ed486828701612d7e565b9250506040612ee586828701612e26565b9150509250925092565b60008060008060808587031215612f0557600080fd5b6000612f1387828801612d7e565b9450506020612f2487828801612d7e565b9350506040612f3587828801612e26565b925050606085013567ffffffffffffffff811115612f5257600080fd5b612f5e87828801612dd2565b91505092959194509250565b60008060408385031215612f7d57600080fd5b6000612f8b85828601612d7e565b9250506020612f9c85828601612d93565b9150509250929050565b60008060408385031215612fb957600080fd5b6000612fc785828601612d7e565b9250506020612fd885828601612e26565b9150509250929050565b600060208284031215612ff457600080fd5b600061300284828501612da8565b91505092915050565b60006020828403121561301d57600080fd5b600061302b84828501612dbd565b91505092915050565b6000806040838503121561304757600080fd5b600083013567ffffffffffffffff81111561306157600080fd5b61306d85828601612dfc565b925050602061307e85828601612e26565b9150509250929050565b60006020828403121561309a57600080fd5b60006130a884828501612e26565b91505092915050565b600080604083850312156130c457600080fd5b60006130d285828601612e26565b92505060206130e385828601612e26565b9150509250929050565b60006130f983836134db565b60a08301905092915050565b61310e81613adb565b82525050565b61311d81613ac9565b82525050565b600061312e826139a2565b61313881856139d0565b935061314383613992565b8060005b8381101561317457815161315b88826130ed565b9750613166836139c3565b925050600181019050613147565b5085935050505092915050565b61318a81613aed565b82525050565b61319981613aed565b82525050565b60006131aa826139ad565b6131b481856139e1565b93506131c4818560208601613b5e565b6131cd81613d2a565b840191505092915050565b60006131e3826139b8565b6131ed81856139f2565b93506131fd818560208601613b5e565b61320681613d2a565b840191505092915050565b600061321c826139b8565b6132268185613a03565b9350613236818560208601613b5e565b80840191505092915050565b600061324f601b836139f2565b915061325a82613d3b565b602082019050919050565b60006132726032836139f2565b915061327d82613d64565b604082019050919050565b60006132956025836139f2565b91506132a082613db3565b604082019050919050565b60006132b8601c836139f2565b91506132c382613e02565b602082019050919050565b60006132db6024836139f2565b91506132e682613e2b565b604082019050919050565b60006132fe6019836139f2565b915061330982613e7a565b602082019050919050565b60006133216029836139f2565b915061332c82613ea3565b604082019050919050565b6000613344602e836139f2565b915061334f82613ef2565b604082019050919050565b60006133676040836139f2565b915061337282613f41565b604082019050919050565b600061338a603e836139f2565b915061339582613f90565b604082019050919050565b60006133ad6020836139f2565b91506133b882613fdf565b602082019050919050565b60006133d0602a836139f2565b91506133db82614008565b604082019050919050565b60006133f36011836139f2565b91506133fe82614057565b602082019050919050565b60006134166018836139f2565b915061342182614080565b602082019050919050565b60006134396021836139f2565b9150613444826140a9565b604082019050919050565b600061345c6024836139f2565b9150613467826140f8565b604082019050919050565b600061347f6030836139f2565b915061348a82614147565b604082019050919050565b60006134a2602e836139f2565b91506134ad82614196565b604082019050919050565b60006134c5601c836139f2565b91506134d0826141e5565b602082019050919050565b60a0820160008201516134f16000850182613543565b5060208201516135046020850182613105565b5060408201516135176040850182613105565b50606082015161352a6060850182613543565b50608082015161353d6080850182613181565b50505050565b61354c81613b45565b82525050565b61355b81613b45565b82525050565b600061356d8285613211565b91506135798284613211565b91508190509392505050565b600060208201905061359a6000830184613114565b92915050565b60006080820190506135b56000830187613114565b6135c26020830186613114565b6135cf6040830185613552565b6135dc6060830184613190565b95945050505050565b60006080820190506135fa6000830187613114565b6136076020830186613114565b6136146040830185613552565b8181036060830152613626818461319f565b905095945050505050565b6000602082019050818103600083015261364b8184613123565b905092915050565b60006020820190506136686000830184613190565b92915050565b6000602082019050818103600083015261368881846131d8565b905092915050565b600060208201905081810360008301526136a981613242565b9050919050565b600060208201905081810360008301526136c981613265565b9050919050565b600060208201905081810360008301526136e981613288565b9050919050565b60006020820190508181036000830152613709816132ab565b9050919050565b60006020820190508181036000830152613729816132ce565b9050919050565b60006020820190508181036000830152613749816132f1565b9050919050565b6000602082019050818103600083015261376981613314565b9050919050565b6000602082019050818103600083015261378981613337565b9050919050565b600060208201905081810360008301526137a98161335a565b9050919050565b600060208201905081810360008301526137c98161337d565b9050919050565b600060208201905081810360008301526137e9816133a0565b9050919050565b60006020820190508181036000830152613809816133c3565b9050919050565b60006020820190508181036000830152613829816133e6565b9050919050565b6000602082019050818103600083015261384981613409565b9050919050565b600060208201905081810360008301526138698161342c565b9050919050565b600060208201905081810360008301526138898161344f565b9050919050565b600060208201905081810360008301526138a981613472565b9050919050565b600060208201905081810360008301526138c981613495565b9050919050565b600060208201905081810360008301526138e9816134b8565b9050919050565b60006020820190506139056000830184613552565b92915050565b6000613915613926565b90506139218282613bc3565b919050565b6000604051905090565b600067ffffffffffffffff82111561394b5761394a613cfb565b5b61395482613d2a565b9050602081019050919050565b600067ffffffffffffffff82111561397c5761397b613cfb565b5b61398582613d2a565b9050602081019050919050565b6000819050602082019050919050565b600081519050919050565b600081519050919050565b600081519050919050565b6000602082019050919050565b600082825260208201905092915050565b600082825260208201905092915050565b600082825260208201905092915050565b600081905092915050565b6000613a1982613b45565b9150613a2483613b45565b9250827fffffffffffffffffffffffffffffffffffffffffffffffffffffffffffffffff03821115613a5957613a58613c6e565b5b828201905092915050565b6000613a6f82613b45565b9150613a7a83613b45565b925082613a8a57613a89613c9d565b5b828204905092915050565b6000613aa082613b45565b9150613aab83613b45565b925082821015613abe57613abd613c6e565b5b828203905092915050565b6000613ad482613b25565b9050919050565b6000613ae682613b25565b9050919050565b60008115159050919050565b60007fffffffff0000000000000000000000000000000000000000000000000000000082169050919050565b600073ffffffffffffffffffffffffffffffffffffffff82169050919050565b6000819050919050565b82818337600083830152505050565b60005b83811015613b7c578082015181840152602081019050613b61565b83811115613b8b576000848401525b50505050565b60006002820490506001821680613ba957607f821691505b60208210811415613bbd57613bbc613ccc565b5b50919050565b613bcc82613d2a565b810181811067ffffffffffffffff82111715613beb57613bea613cfb565b5b80604052505050565b6000613bff82613b45565b91507fffffffffffffffffffffffffffffffffffffffffffffffffffffffffffffffff821415613c3257613c31613c6e565b5b600182019050919050565b6000613c4882613b45565b9150613c5383613b45565b925082613c6357613c62613c9d565b5b828206905092915050565b7f4e487b7100000000000000000000000000000000000000000000000000000000600052601160045260246000fd5b7f4e487b7100000000000000000000000000000000000000000000000000000000600052601260045260246000fd5b7f4e487b7100000000000000000000000000000000000000000000000000000000600052602260045260246000fd5b7f4e487b7100000000000000000000000000000000000000000000000000000000600052604160045260246000fd5b6000601f19601f8301169050919050565b7f436f756e7465723a2064656372656d656e74206f766572666c6f770000000000600082015250565b7f4552433732313a207472616e7366657220746f206e6f6e20455243373231526560008201527f63656976657220696d706c656d656e7465720000000000000000000000000000602082015250565b7f4552433732313a207472616e736665722066726f6d20696e636f72726563742060008201527f6f776e6572000000000000000000000000000000000000000000000000000000602082015250565b7f4552433732313a20746f6b656e20616c7265616479206d696e74656400000000600082015250565b7f4552433732313a207472616e7366657220746f20746865207a65726f2061646460008201527f7265737300000000000000000000000000000000000000000000000000000000602082015250565b7f4552433732313a20617070726f766520746f2063616c6c657200000000000000600082015250565b7f4552433732313a2061646472657373207a65726f206973206e6f74206120766160008201527f6c6964206f776e65720000000000000000000000000000000000000000000000602082015250565b7f45524337323155524953746f726167653a2055524920736574206f66206e6f6e60008201527f6578697374656e7420746f6b656e000000000000000000000000000000000000602082015250565b7f506c65617365207375626d6974207468652061736b696e67207072696365206960008201527f6e206f7264657220746f20636f6d706c65746520746865207075726368617365602082015250565b7f4552433732313a20617070726f76652063616c6c6572206973206e6f7420746f60008201527f6b656e206f776e6572206e6f7220617070726f76656420666f7220616c6c0000602082015250565b7f4552433732313a206d696e7420746f20746865207a65726f2061646472657373600082015250565b7f4f6e6c79206974656d206f776e65722063616e20706572666f726d207468697360008201527f206f7065726174696f6e00000000000000000000000000000000000000000000602082015250565b7f5468652074696d6572206973206f766572000000000000000000000000000000600082015250565b7f4552433732313a20696e76616c696420746f6b656e2049440000000000000000600082015250565b7f4552433732313a20617070726f76616c20746f2063757272656e74206f776e6560008201527f7200000000000000000000000000000000000000000000000000000000000000602082015250565b7f5072696365206d75737420626520657175616c20746f206c697374696e67207060008201527f7269636500000000000000000000000000000000000000000000000000000000602082015250565b7f4f6e6c79206d61726b6574706c616365206f776e65722063616e20757064617460008201527f65206c697374696e672070726963652e00000000000000000000000000000000602082015250565b7f4552433732313a2063616c6c6572206973206e6f7420746f6b656e206f776e6560008201527f72206e6f7220617070726f766564000000000000000000000000000000000000602082015250565b7f5072696365206d757374206265206174206c6561737420312077656900000000600082015250565b61421781613ac9565b811461422257600080fd5b50565b61422e81613aed565b811461423957600080fd5b50565b61424581613af9565b811461425057600080fd5b50565b61425c81613b45565b811461426757600080fd5b5056fea26469706673582212200773e30bfdc3f4d5d93266a8ef46338468b03856b73819d6d5d7eaa5cf8a6ac264736f6c63430008040033",
  "linkReferences": {},
  "deployedLinkReferences": {}
}